{
  "deployments": [
    {
      "transactions": [
        {
          "hash": "0x4e718e5cd74f11f22b94b68b97afecc5ca58834e75e53c6b588e513b19b21d45",
          "transactionType": "CREATE",
          "contractName": "SuperchainFactory",
          "contractAddress": "0xb19b36b1456e65e3a6d514d3f715f204bd59f431",
          "function": null,
          "arguments": null,
          "transaction": {
            "from": "0xa0ee7a142d267c1f36714e4a8f75612f20a79720",
            "gas": "0xc3342",
            "value": "0x0",
            "input": "0x6080604052600080546001600160a01b031916734200000000000000000000000000000000000023179055348015603557600080fd5b50600280546001600160a01b0319163317905561095a806100576000396000f3fe608060405234801561001057600080fd5b506004361061007d5760003560e01c80635d89137d1161005b5780635d89137d146100d85780637749c463146100eb5780638da5cb5b1461011b578063fa72414a1461014657600080fd5b806319fc5fab146100825780633f6f343d146100a05780634af63f02146100c3575b600080fd5b61008a610159565b6040516100979190610696565b60405180910390f35b6100b36100ae366004610706565b6101ce565b6040519015158152602001610097565b6100d66100d1366004610739565b610235565b005b6100d66100e6366004610739565b610302565b6100fe6100f93660046107f4565b6104af565b604080519283526001600160a01b03909116602083015201610097565b60025461012e906001600160a01b031681565b6040516001600160a01b039091168152602001610097565b6100d661015436600461080d565b6104e6565b60606001805480602002602001604051908101604052809291908181526020016000905b828210156101c55760008481526020908190206040805180820190915260028502909101805482526001908101546001600160a01b031682840152908352909201910161017d565b50505050905090565b6000805b60015481101561022c57826001600160a01b0316600182815481106101f9576101f961083d565b60009182526020909120600160029092020101546001600160a01b0316036102245750600192915050565b6001016101d2565b50600092915050565b6000546001600160a01b0316331461025f576040516265d51560e41b815260040160405180910390fd5b6000546040805163071ffbc360e31b8152905130926001600160a01b0316916338ffde189160048083019260209291908290030181865afa1580156102a8573d6000803e3d6000fd5b505050506040513d601f19601f820116820180604052508101906102cc9190610853565b6001600160a01b0316146102f357604051635e11715560e11b815260040160405180910390fd5b6102fd8282610675565b505050565b600061030e8383610675565b905046816001600160a01b03167f836641082a104c21a747f2896a189cda6d34502edf7de2f98afc4460d0720bfa60405160405180910390a360005b6001548110156104a9576000600182815481106103695761036961083d565b60009182526020808320604080518082018252600290940290910180548452600101546001600160a01b031691830191909152519092503090634af63f02906103b890899089906024016108b6565b60408051601f19818403018152918152602080830180516001600160e01b031660e09590951b949094179093526000548651938701519151637056f41f60e01b81529295506001600160a01b03169350637056f41f9261041f9290919086906004016108d8565b6020604051808303816000875af115801561043e573d6000803e3d6000fd5b505050506040513d601f19601f82011682018060405250810190610462919061090b565b50602082015182516040516001600160a01b03909216917f7720df5a1a43b256e81697dbd37c1fc252ec55da292804317b97e4d04c316e6b90600090a3505060010161034a565b50505050565b600181815481106104bf57600080fd5b6000918252602090912060029091020180546001909101549091506001600160a01b031682565b6002546001600160a01b031633146105545760405162461bcd60e51b815260206004820152602660248201527f5375706572636861696e466163746f72793a204f6e6c79206f776e65722063616044820152651b8818d85b1b60d21b60648201526084015b60405180910390fd5b6001600160a01b0381166105b55760405162461bcd60e51b815260206004820152602260248201527f5375706572636861696e466163746f72793a20496e76616c6964206164647265604482015261737360f01b606482015260840161054b565b6040805180820182528381526001600160a01b0383811660208301818152600180548082018255600091825294517fb10e2d527612073b26eecdfd717e6a320cf44b4afac2b0732d9fcbe2b7fa0cf660029096029586015590517fb10e2d527612073b26eecdfd717e6a320cf44b4afac2b0732d9fcbe2b7fa0cf790940180546001600160a01b0319169490931693909317909155915184917fd89ad817fc0c9efec7e8ed7ca6aeabe5e3471f10c59c7fd6cd8a7f5b19bd2a3491a35050565b600080828451602086016000f59050803b61068f57600080fd5b9392505050565b602080825282518282018190526000918401906040840190835b818110156106e3578351805184526020908101516001600160a01b031681850152909301926040909201916001016106b0565b509095945050505050565b6001600160a01b038116811461070357600080fd5b50565b60006020828403121561071857600080fd5b813561068f816106ee565b634e487b7160e01b600052604160045260246000fd5b6000806040838503121561074c57600080fd5b823567ffffffffffffffff81111561076357600080fd5b8301601f8101851361077457600080fd5b803567ffffffffffffffff81111561078e5761078e610723565b604051601f8201601f19908116603f0116810167ffffffffffffffff811182821017156107bd576107bd610723565b6040528181528282016020018710156107d557600080fd5b8160208401602083013760006020928201830152969401359450505050565b60006020828403121561080657600080fd5b5035919050565b6000806040838503121561082057600080fd5b823591506020830135610832816106ee565b809150509250929050565b634e487b7160e01b600052603260045260246000fd5b60006020828403121561086557600080fd5b815161068f816106ee565b6000815180845260005b818110156108965760208185018101518683018201520161087a565b506000602082860101526020601f19601f83011685010191505092915050565b6040815260006108c96040830185610870565b90508260208301529392505050565b8381526001600160a01b038316602082015260606040820181905260009061090290830184610870565b95945050505050565b60006020828403121561091d57600080fd5b505191905056fea264697066735822122091f0b8d15961b65e117e1ce9d989b3ece294b37f38730961efa2da02f2036bc464736f6c634300081c0033",
            "nonce": "0x2",
            "chainId": "0x385"
          },
          "additionalContracts": [],
          "isFixedGasLimit": false
        }
      ],
      "receipts": [
        {
          "status": "0x1",
          "cumulativeGasUsed": "0x9631e",
          "logs": [],
          "logsBloom": "0x00000000000000000000000000000000000000000000000000000000000000000000000000000000000000000000000000000000000000000000000000000000000000000000000000000000000000000000000000000000000000000000000000000000000000000000000000000000000000000000000000000000000000000000000000000000000000000000000000000000000000000000000000000000000000000000000000000000000000000000000000000000000000000000000000000000000000000000000000000000000000000000000000000000000000000000000000000000000000000000000000000000000000000000000000000000",
          "type": "0x2",
          "transactionHash": "0x4e718e5cd74f11f22b94b68b97afecc5ca58834e75e53c6b588e513b19b21d45",
          "transactionIndex": "0x0",
          "blockHash": "0xeec0c5216550741fee39075bc27a2b5f449d67b3bfb39875dc3924714aba165f",
          "blockNumber": "0x582",
          "gasUsed": "0x9631e",
          "effectiveGasPrice": "0x8",
          "blobGasPrice": "0x1",
          "from": "0xa0ee7a142d267c1f36714e4a8f75612f20a79720",
          "to": null,
          "contractAddress": "0xb19b36b1456e65e3a6d514d3f715f204bd59f431"
        }
      ],
      "libraries": [],
      "pending": [],
      "returns": {},
      "timestamp": 1739643724,
      "chain": 901,
      "commit": "5a4b127"
    },
    {
      "transactions": [
        {
          "hash": "0xe5121d6fc1fa1b45fab77647757e1d2e88be2cccd5d79960fe7699ca4b6a3147",
          "transactionType": "CREATE",
          "contractName": "SuperchainFactory",
          "contractAddress": "0xb19b36b1456e65e3a6d514d3f715f204bd59f431",
          "function": null,
          "arguments": null,
          "transaction": {
            "from": "0xa0ee7a142d267c1f36714e4a8f75612f20a79720",
            "gas": "0xc3342",
            "value": "0x0",
            "input": "0x6080604052600080546001600160a01b031916734200000000000000000000000000000000000023179055348015603557600080fd5b50600280546001600160a01b0319163317905561095a806100576000396000f3fe608060405234801561001057600080fd5b506004361061007d5760003560e01c80635d89137d1161005b5780635d89137d146100d85780637749c463146100eb5780638da5cb5b1461011b578063fa72414a1461014657600080fd5b806319fc5fab146100825780633f6f343d146100a05780634af63f02146100c3575b600080fd5b61008a610159565b6040516100979190610696565b60405180910390f35b6100b36100ae366004610706565b6101ce565b6040519015158152602001610097565b6100d66100d1366004610739565b610235565b005b6100d66100e6366004610739565b610302565b6100fe6100f93660046107f4565b6104af565b604080519283526001600160a01b03909116602083015201610097565b60025461012e906001600160a01b031681565b6040516001600160a01b039091168152602001610097565b6100d661015436600461080d565b6104e6565b60606001805480602002602001604051908101604052809291908181526020016000905b828210156101c55760008481526020908190206040805180820190915260028502909101805482526001908101546001600160a01b031682840152908352909201910161017d565b50505050905090565b6000805b60015481101561022c57826001600160a01b0316600182815481106101f9576101f961083d565b60009182526020909120600160029092020101546001600160a01b0316036102245750600192915050565b6001016101d2565b50600092915050565b6000546001600160a01b0316331461025f576040516265d51560e41b815260040160405180910390fd5b6000546040805163071ffbc360e31b8152905130926001600160a01b0316916338ffde189160048083019260209291908290030181865afa1580156102a8573d6000803e3d6000fd5b505050506040513d601f19601f820116820180604052508101906102cc9190610853565b6001600160a01b0316146102f357604051635e11715560e11b815260040160405180910390fd5b6102fd8282610675565b505050565b600061030e8383610675565b905046816001600160a01b03167f836641082a104c21a747f2896a189cda6d34502edf7de2f98afc4460d0720bfa60405160405180910390a360005b6001548110156104a9576000600182815481106103695761036961083d565b60009182526020808320604080518082018252600290940290910180548452600101546001600160a01b031691830191909152519092503090634af63f02906103b890899089906024016108b6565b60408051601f19818403018152918152602080830180516001600160e01b031660e09590951b949094179093526000548651938701519151637056f41f60e01b81529295506001600160a01b03169350637056f41f9261041f9290919086906004016108d8565b6020604051808303816000875af115801561043e573d6000803e3d6000fd5b505050506040513d601f19601f82011682018060405250810190610462919061090b565b50602082015182516040516001600160a01b03909216917f7720df5a1a43b256e81697dbd37c1fc252ec55da292804317b97e4d04c316e6b90600090a3505060010161034a565b50505050565b600181815481106104bf57600080fd5b6000918252602090912060029091020180546001909101549091506001600160a01b031682565b6002546001600160a01b031633146105545760405162461bcd60e51b815260206004820152602660248201527f5375706572636861696e466163746f72793a204f6e6c79206f776e65722063616044820152651b8818d85b1b60d21b60648201526084015b60405180910390fd5b6001600160a01b0381166105b55760405162461bcd60e51b815260206004820152602260248201527f5375706572636861696e466163746f72793a20496e76616c6964206164647265604482015261737360f01b606482015260840161054b565b6040805180820182528381526001600160a01b0383811660208301818152600180548082018255600091825294517fb10e2d527612073b26eecdfd717e6a320cf44b4afac2b0732d9fcbe2b7fa0cf660029096029586015590517fb10e2d527612073b26eecdfd717e6a320cf44b4afac2b0732d9fcbe2b7fa0cf790940180546001600160a01b0319169490931693909317909155915184917fd89ad817fc0c9efec7e8ed7ca6aeabe5e3471f10c59c7fd6cd8a7f5b19bd2a3491a35050565b600080828451602086016000f59050803b61068f57600080fd5b9392505050565b602080825282518282018190526000918401906040840190835b818110156106e3578351805184526020908101516001600160a01b031681850152909301926040909201916001016106b0565b509095945050505050565b6001600160a01b038116811461070357600080fd5b50565b60006020828403121561071857600080fd5b813561068f816106ee565b634e487b7160e01b600052604160045260246000fd5b6000806040838503121561074c57600080fd5b823567ffffffffffffffff81111561076357600080fd5b8301601f8101851361077457600080fd5b803567ffffffffffffffff81111561078e5761078e610723565b604051601f8201601f19908116603f0116810167ffffffffffffffff811182821017156107bd576107bd610723565b6040528181528282016020018710156107d557600080fd5b8160208401602083013760006020928201830152969401359450505050565b60006020828403121561080657600080fd5b5035919050565b6000806040838503121561082057600080fd5b823591506020830135610832816106ee565b809150509250929050565b634e487b7160e01b600052603260045260246000fd5b60006020828403121561086557600080fd5b815161068f816106ee565b6000815180845260005b818110156108965760208185018101518683018201520161087a565b506000602082860101526020601f19601f83011685010191505092915050565b6040815260006108c96040830185610870565b90508260208301529392505050565b8381526001600160a01b038316602082015260606040820181905260009061090290830184610870565b95945050505050565b60006020828403121561091d57600080fd5b505191905056fea264697066735822122091f0b8d15961b65e117e1ce9d989b3ece294b37f38730961efa2da02f2036bc464736f6c634300081c0033",
            "nonce": "0x2",
            "chainId": "0x386"
          },
          "additionalContracts": [],
          "isFixedGasLimit": false
        }
      ],
      "receipts": [
        {
          "status": "0x1",
          "cumulativeGasUsed": "0x9631e",
          "logs": [],
          "logsBloom": "0x00000000000000000000000000000000000000000000000000000000000000000000000000000000000000000000000000000000000000000000000000000000000000000000000000000000000000000000000000000000000000000000000000000000000000000000000000000000000000000000000000000000000000000000000000000000000000000000000000000000000000000000000000000000000000000000000000000000000000000000000000000000000000000000000000000000000000000000000000000000000000000000000000000000000000000000000000000000000000000000000000000000000000000000000000000000",
          "type": "0x2",
          "transactionHash": "0xe5121d6fc1fa1b45fab77647757e1d2e88be2cccd5d79960fe7699ca4b6a3147",
          "transactionIndex": "0x0",
          "blockHash": "0xaf045a399239facd47497c435912e45b07042780f2f633b6ed1b2dade2219e3b",
          "blockNumber": "0x583",
          "gasUsed": "0x9631e",
          "effectiveGasPrice": "0x8",
          "blobGasPrice": "0x1",
          "from": "0xa0ee7a142d267c1f36714e4a8f75612f20a79720",
          "to": null,
          "contractAddress": "0xb19b36b1456e65e3a6d514d3f715f204bd59f431"
        }
      ],
      "libraries": [],
      "pending": [],
      "returns": {},
      "timestamp": 1739643724,
      "chain": 902,
      "commit": "5a4b127"
    },
    {
      "transactions": [
        {
          "hash": "0xf57d2fbbc2b0e16886421e83389f7fc58758917a073df9a69565e088848e3f97",
          "transactionType": "CALL",
          "contractName": "SuperchainFactory",
          "contractAddress": "0xb19b36b1456e65e3a6d514d3f715f204bd59f431",
          "function": "addSiblingFactory(uint256,address)",
          "arguments": [
            "902",
            "0xb19b36b1456E65E3A6D514D3F715f204BD59f431"
          ],
          "transaction": {
            "from": "0xa0ee7a142d267c1f36714e4a8f75612f20a79720",
            "to": "0xb19b36b1456e65e3a6d514d3f715f204bd59f431",
            "gas": "0x1f16c",
            "value": "0x0",
            "input": "0xfa72414a0000000000000000000000000000000000000000000000000000000000000386000000000000000000000000b19b36b1456e65e3a6d514d3f715f204bd59f431",
            "nonce": "0x3",
            "chainId": "0x385"
          },
          "additionalContracts": [],
          "isFixedGasLimit": false
        }
      ],
      "receipts": [
        {
          "status": "0x1",
          "cumulativeGasUsed": "0x16820",
          "logs": [
            {
              "address": "0xb19b36b1456e65e3a6d514d3f715f204bd59f431",
              "topics": [
                "0xd89ad817fc0c9efec7e8ed7ca6aeabe5e3471f10c59c7fd6cd8a7f5b19bd2a34",
                "0x0000000000000000000000000000000000000000000000000000000000000386",
                "0x000000000000000000000000b19b36b1456e65e3a6d514d3f715f204bd59f431"
              ],
              "data": "0x",
              "blockHash": "0x4215fc2f7c6d035fad44782b423ee707ac26338ba9c246d9e3fa7c718d4f591d",
              "blockNumber": "0x584",
              "blockTimestamp": "0x67b0db51",
              "transactionHash": "0xf57d2fbbc2b0e16886421e83389f7fc58758917a073df9a69565e088848e3f97",
              "transactionIndex": "0x0",
              "logIndex": "0x0",
              "removed": false
            }
          ],
          "logsBloom": "0x00000000000000020000000000000000000000400000000000000000000000000000000000000000000000000000000000000080000000000000000000000000000000000000000000040000000000000000000000000000008000000800000000000000000000000040000000000000000000000000000010000000000000000000000800000000000000000000000000000000000000000000080000000000000000000000000000000000000000000000000000000000200000000000000000000000000000000000000000000000000000100000000000000000000000000000000000000000000000000000000000000000000000000000000000000000",
          "type": "0x2",
          "transactionHash": "0xf57d2fbbc2b0e16886421e83389f7fc58758917a073df9a69565e088848e3f97",
          "transactionIndex": "0x0",
          "blockHash": "0x4215fc2f7c6d035fad44782b423ee707ac26338ba9c246d9e3fa7c718d4f591d",
          "blockNumber": "0x584",
          "gasUsed": "0x16820",
          "effectiveGasPrice": "0x8",
          "blobGasPrice": "0x1",
          "from": "0xa0ee7a142d267c1f36714e4a8f75612f20a79720",
          "to": "0xb19b36b1456e65e3a6d514d3f715f204bd59f431",
          "contractAddress": null
        }
      ],
      "libraries": [],
      "pending": [],
      "returns": {},
      "timestamp": 1739643724,
      "chain": 901,
      "commit": "5a4b127"
    },
    {
      "transactions": [
        {
          "hash": "0xebbb557168ed954d1edf3cc2f2231b3781705164e1dfb6ea26113ef0addcb08c",
          "transactionType": "CALL",
          "contractName": "SuperchainFactory",
          "contractAddress": "0xb19b36b1456e65e3a6d514d3f715f204bd59f431",
          "function": "addSiblingFactory(uint256,address)",
          "arguments": [
            "901",
            "0xb19b36b1456E65E3A6D514D3F715f204BD59f431"
          ],
          "transaction": {
            "from": "0xa0ee7a142d267c1f36714e4a8f75612f20a79720",
            "to": "0xb19b36b1456e65e3a6d514d3f715f204bd59f431",
            "gas": "0x1f16c",
            "value": "0x0",
            "input": "0xfa72414a0000000000000000000000000000000000000000000000000000000000000385000000000000000000000000b19b36b1456e65e3a6d514d3f715f204bd59f431",
            "nonce": "0x3",
            "chainId": "0x386"
          },
          "additionalContracts": [],
          "isFixedGasLimit": false
        }
      ],
      "receipts": [
        {
          "status": "0x1",
          "cumulativeGasUsed": "0x16820",
          "logs": [
            {
              "address": "0xb19b36b1456e65e3a6d514d3f715f204bd59f431",
              "topics": [
                "0xd89ad817fc0c9efec7e8ed7ca6aeabe5e3471f10c59c7fd6cd8a7f5b19bd2a34",
                "0x0000000000000000000000000000000000000000000000000000000000000385",
                "0x000000000000000000000000b19b36b1456e65e3a6d514d3f715f204bd59f431"
              ],
              "data": "0x",
              "blockHash": "0xd477b43e8b11220a6d2386f7c5f2e63d40c2412d89aabce4184a0a013eb5e793",
              "blockNumber": "0x585",
              "blockTimestamp": "0x67b0db53",
              "transactionHash": "0xebbb557168ed954d1edf3cc2f2231b3781705164e1dfb6ea26113ef0addcb08c",
              "transactionIndex": "0x0",
              "logIndex": "0x0",
              "removed": false
            }
          ],
          "logsBloom": "0x00000000000000000000000000000000000000400000000000000000000000000000000000000000000000000000000000000080000040000000000000000000000000000000000000040000000000000000000000000000008000000800000000000000000000000000000000000000000000000000000010000000000000000000000800000000000000000000000000000000000000000000080000000000000000000000000000000000000000000000000000000000200000000000000000000000000000000000000000000000000000000000000000000000000000000000000000000000000000001800000000000000000000000000000000000000",
          "type": "0x2",
          "transactionHash": "0xebbb557168ed954d1edf3cc2f2231b3781705164e1dfb6ea26113ef0addcb08c",
          "transactionIndex": "0x0",
          "blockHash": "0xd477b43e8b11220a6d2386f7c5f2e63d40c2412d89aabce4184a0a013eb5e793",
          "blockNumber": "0x585",
          "gasUsed": "0x16820",
          "effectiveGasPrice": "0x8",
          "blobGasPrice": "0x1",
          "from": "0xa0ee7a142d267c1f36714e4a8f75612f20a79720",
          "to": "0xb19b36b1456e65e3a6d514d3f715f204bd59f431",
          "contractAddress": null
        }
      ],
      "libraries": [],
      "pending": [],
      "returns": {},
      "timestamp": 1739643724,
      "chain": 902,
      "commit": "5a4b127"
    }
  ],
  "timestamp": 1739643732
}